{
  "_format": "hh-sol-artifact-1",
  "contractName": "CreditRequest",
  "sourceName": "contracts/CreditRequest.sol",
  "abi": [
    {
      "inputs": [],
      "stateMutability": "nonpayable",
      "type": "constructor"
    },
    {
      "anonymous": false,
      "inputs": [
        {
          "indexed": false,
          "internalType": "address",
          "name": "requester",
          "type": "address"
        },
        {
          "indexed": false,
          "internalType": "uint256",
          "name": "amount",
          "type": "uint256"
        }
      ],
      "name": "DecreasedRequest",
      "type": "event"
    },
    {
      "anonymous": false,
      "inputs": [
        {
          "indexed": false,
          "internalType": "address",
          "name": "requester",
          "type": "address"
        },
        {
          "indexed": false,
          "internalType": "uint256",
          "name": "amount",
          "type": "uint256"
        }
      ],
      "name": "IncreasedRequest",
      "type": "event"
    },
    {
      "inputs": [
        {
          "internalType": "uint256",
          "name": "",
          "type": "uint256"
        }
      ],
      "name": "addressesWithRequests",
      "outputs": [
        {
          "internalType": "address",
          "name": "",
          "type": "address"
        }
      ],
      "stateMutability": "view",
      "type": "function"
    },
    {
      "inputs": [
        {
          "internalType": "uint256",
          "name": "amount",
          "type": "uint256"
        }
      ],
      "name": "decreaseRequest",
      "outputs": [],
      "stateMutability": "nonpayable",
      "type": "function"
    },
    {
      "inputs": [],
      "name": "getAddressesWithRequests",
      "outputs": [
        {
          "internalType": "address[]",
          "name": "",
          "type": "address[]"
        }
      ],
      "stateMutability": "view",
      "type": "function"
    },
    {
      "inputs": [
        {
          "internalType": "address",
          "name": "_requester",
          "type": "address"
        }
      ],
      "name": "getRequestedCredit",
      "outputs": [
        {
          "internalType": "uint256",
          "name": "",
          "type": "uint256"
        }
      ],
      "stateMutability": "view",
      "type": "function"
    },
    {
      "inputs": [
        {
          "internalType": "uint256",
          "name": "amount",
          "type": "uint256"
        }
      ],
      "name": "increaseRequest",
      "outputs": [],
      "stateMutability": "nonpayable",
      "type": "function"
    },
    {
      "inputs": [],
      "name": "owner",
      "outputs": [
        {
          "internalType": "address",
          "name": "",
          "type": "address"
        }
      ],
      "stateMutability": "view",
      "type": "function"
    },
    {
      "inputs": [
        {
          "internalType": "address",
          "name": "",
          "type": "address"
        }
      ],
      "name": "requests",
      "outputs": [
        {
          "internalType": "uint256",
          "name": "",
          "type": "uint256"
        }
      ],
      "stateMutability": "view",
      "type": "function"
    }
  ],
  "bytecode": "0x608060405234801561001057600080fd5b50336000806101000a81548173ffffffffffffffffffffffffffffffffffffffff021916908373ffffffffffffffffffffffffffffffffffffffff160217905550610ad7806100606000396000f3fe608060405234801561001057600080fd5b506004361061007d5760003560e01c806374adad1d1161005b57806374adad1d146100fe5780638da5cb5b1461012e5780638e60d9141461014c578063ffd7d752146101685761007d565b806311caad6714610082578063140598cf146100b25780631a775cb8146100ce575b600080fd5b61009c6004803603810190610097919061074f565b610186565b6040516100a991906107bd565b60405180910390f35b6100cc60048036038101906100c7919061074f565b6101c5565b005b6100e860048036038101906100e39190610804565b61030f565b6040516100f59190610840565b60405180910390f35b61011860048036038101906101139190610804565b610358565b6040516101259190610840565b60405180910390f35b610136610370565b60405161014391906107bd565b60405180910390f35b6101666004803603810190610161919061074f565b610394565b005b610170610508565b60405161017d9190610919565b60405180910390f35b6002818154811061019657600080fd5b906000526020600020016000915054906101000a900473ffffffffffffffffffffffffffffffffffffffff1681565b6000600160003373ffffffffffffffffffffffffffffffffffffffff1673ffffffffffffffffffffffffffffffffffffffff168152602001908152602001600020541480156102145750600081115b1561027d576002339080600181540180825580915050600190039060005260206000200160009091909190916101000a81548173ffffffffffffffffffffffffffffffffffffffff021916908373ffffffffffffffffffffffffffffffffffffffff1602179055505b80600160003373ffffffffffffffffffffffffffffffffffffffff1673ffffffffffffffffffffffffffffffffffffffff16815260200190815260200160002060008282546102cc919061096a565b925050819055507f95d66ba26dce9fbf172977308cf9398d16d11af55b53d64cf2c89eab1fec59b4338260405161030492919061099e565b60405180910390a150565b6000600160008373ffffffffffffffffffffffffffffffffffffffff1673ffffffffffffffffffffffffffffffffffffffff168152602001908152602001600020549050919050565b60016020528060005260406000206000915090505481565b60008054906101000a900473ffffffffffffffffffffffffffffffffffffffff1681565b80600160003373ffffffffffffffffffffffffffffffffffffffff1673ffffffffffffffffffffffffffffffffffffffff1681526020019081526020016000205411610424576000600160003373ffffffffffffffffffffffffffffffffffffffff1673ffffffffffffffffffffffffffffffffffffffff1681526020019081526020016000208190555061047b565b80600160003373ffffffffffffffffffffffffffffffffffffffff1673ffffffffffffffffffffffffffffffffffffffff168152602001908152602001600020600082825461047391906109c7565b925050819055505b6000600160003373ffffffffffffffffffffffffffffffffffffffff1673ffffffffffffffffffffffffffffffffffffffff16815260200190815260200160002054036104cc576104cb33610596565b5b7f965ece900b33844e89b724cdc93c0eef8f327fb5a23d60a4700cd1040e8ad86b33826040516104fd92919061099e565b60405180910390a150565b6060600280548060200260200160405190810160405280929190818152602001828054801561058c57602002820191906000526020600020905b8160009054906101000a900473ffffffffffffffffffffffffffffffffffffffff1673ffffffffffffffffffffffffffffffffffffffff1681526020019060010190808311610542575b5050505050905090565b60005b8173ffffffffffffffffffffffffffffffffffffffff16600282815481106105c4576105c36109fb565b5b9060005260206000200160009054906101000a900473ffffffffffffffffffffffffffffffffffffffff1673ffffffffffffffffffffffffffffffffffffffff161461061d57808061061590610a2a565b915050610599565b6002600160028054905061063191906109c7565b81548110610642576106416109fb565b5b9060005260206000200160009054906101000a900473ffffffffffffffffffffffffffffffffffffffff1660028281548110610681576106806109fb565b5b9060005260206000200160006101000a81548173ffffffffffffffffffffffffffffffffffffffff021916908373ffffffffffffffffffffffffffffffffffffffff16021790555060028054806106db576106da610a72565b5b6001900381819060005260206000200160006101000a81549073ffffffffffffffffffffffffffffffffffffffff021916905590555050565b600080fd5b6000819050919050565b61072c81610719565b811461073757600080fd5b50565b60008135905061074981610723565b92915050565b60006020828403121561076557610764610714565b5b60006107738482850161073a565b91505092915050565b600073ffffffffffffffffffffffffffffffffffffffff82169050919050565b60006107a78261077c565b9050919050565b6107b78161079c565b82525050565b60006020820190506107d260008301846107ae565b92915050565b6107e18161079c565b81146107ec57600080fd5b50565b6000813590506107fe816107d8565b92915050565b60006020828403121561081a57610819610714565b5b6000610828848285016107ef565b91505092915050565b61083a81610719565b82525050565b60006020820190506108556000830184610831565b92915050565b600081519050919050565b600082825260208201905092915050565b6000819050602082019050919050565b6108908161079c565b82525050565b60006108a28383610887565b60208301905092915050565b6000602082019050919050565b60006108c68261085b565b6108d08185610866565b93506108db83610877565b8060005b8381101561090c5781516108f38882610896565b97506108fe836108ae565b9250506001810190506108df565b5085935050505092915050565b6000602082019050818103600083015261093381846108bb565b905092915050565b7f4e487b7100000000000000000000000000000000000000000000000000000000600052601160045260246000fd5b600061097582610719565b915061098083610719565b92508282019050808211156109985761099761093b565b5b92915050565b60006040820190506109b360008301856107ae565b6109c06020830184610831565b9392505050565b60006109d282610719565b91506109dd83610719565b92508282039050818111156109f5576109f461093b565b5b92915050565b7f4e487b7100000000000000000000000000000000000000000000000000000000600052603260045260246000fd5b6000610a3582610719565b91507fffffffffffffffffffffffffffffffffffffffffffffffffffffffffffffffff8203610a6757610a6661093b565b5b600182019050919050565b7f4e487b7100000000000000000000000000000000000000000000000000000000600052603160045260246000fdfea2646970667358221220f1c11ad2167915188555a54f1057d5325029198823b4d1b233b515ad66d418e364736f6c63430008130033",
  "linkReferences": {},
  "deployedLinkReferences": {}
}